{
  "_format": "hh-sol-artifact-1",
  "contractName": "ProjectFactory",
  "sourceName": "contracts/ProjectFactory.sol",
  "abi": [
    {
      "inputs": [
        {
          "internalType": "address",
          "name": "initialOwner",
          "type": "address"
        }
      ],
      "stateMutability": "nonpayable",
      "type": "constructor"
    },
    {
      "inputs": [
        {
          "internalType": "address",
          "name": "owner",
          "type": "address"
        }
      ],
      "name": "OwnableInvalidOwner",
      "type": "error"
    },
    {
      "inputs": [
        {
          "internalType": "address",
          "name": "account",
          "type": "address"
        }
      ],
      "name": "OwnableUnauthorizedAccount",
      "type": "error"
    },
    {
      "inputs": [],
      "name": "ReentrancyGuardReentrantCall",
      "type": "error"
    },
    {
      "anonymous": false,
      "inputs": [
        {
          "indexed": true,
          "internalType": "uint256",
          "name": "projectId",
          "type": "uint256"
        },
        {
          "indexed": true,
          "internalType": "address",
          "name": "backer",
          "type": "address"
        },
        {
          "indexed": false,
          "internalType": "uint256",
          "name": "amount",
          "type": "uint256"
        }
      ],
      "name": "ContributionMade",
      "type": "event"
    },
    {
      "anonymous": false,
      "inputs": [
        {
          "indexed": true,
          "internalType": "uint256",
          "name": "projectId",
          "type": "uint256"
        },
        {
          "indexed": false,
          "internalType": "uint256",
          "name": "amount",
          "type": "uint256"
        },
        {
          "indexed": false,
          "internalType": "uint256",
          "name": "milestoneIndex",
          "type": "uint256"
        }
      ],
      "name": "FundsReleased",
      "type": "event"
    },
    {
      "anonymous": false,
      "inputs": [
        {
          "indexed": true,
          "internalType": "uint256",
          "name": "projectId",
          "type": "uint256"
        },
        {
          "indexed": false,
          "internalType": "uint256",
          "name": "milestoneIndex",
          "type": "uint256"
        }
      ],
      "name": "MilestoneCompleted",
      "type": "event"
    },
    {
      "anonymous": false,
      "inputs": [
        {
          "indexed": true,
          "internalType": "address",
          "name": "previousOwner",
          "type": "address"
        },
        {
          "indexed": true,
          "internalType": "address",
          "name": "newOwner",
          "type": "address"
        }
      ],
      "name": "OwnershipTransferred",
      "type": "event"
    },
    {
      "anonymous": false,
      "inputs": [
        {
          "indexed": true,
          "internalType": "uint256",
          "name": "projectId",
          "type": "uint256"
        },
        {
          "indexed": true,
          "internalType": "address",
          "name": "creator",
          "type": "address"
        },
        {
          "indexed": false,
          "internalType": "string",
          "name": "title",
          "type": "string"
        },
        {
          "indexed": false,
          "internalType": "uint256",
          "name": "goalAmount",
          "type": "uint256"
        },
        {
          "indexed": false,
          "internalType": "uint256",
          "name": "deadline",
          "type": "uint256"
        }
      ],
      "name": "ProjectCreated",
      "type": "event"
    },
    {
      "anonymous": false,
      "inputs": [
        {
          "indexed": true,
          "internalType": "uint256",
          "name": "projectId",
          "type": "uint256"
        },
        {
          "indexed": false,
          "internalType": "enum ProjectFactory.ProjectStatus",
          "name": "newStatus",
          "type": "uint8"
        }
      ],
      "name": "ProjectStatusChanged",
      "type": "event"
    },
    {
      "anonymous": false,
      "inputs": [
        {
          "indexed": true,
          "internalType": "uint256",
          "name": "projectId",
          "type": "uint256"
        },
        {
          "indexed": true,
          "internalType": "address",
          "name": "backer",
          "type": "address"
        },
        {
          "indexed": false,
          "internalType": "uint256",
          "name": "amount",
          "type": "uint256"
        }
      ],
      "name": "RefundIssued",
      "type": "event"
    },
    {
      "inputs": [
        {
          "internalType": "uint256",
          "name": "_projectId",
          "type": "uint256"
        }
      ],
      "name": "contribute",
      "outputs": [],
      "stateMutability": "payable",
      "type": "function"
    },
    {
      "inputs": [
        {
          "internalType": "uint256",
          "name": "",
          "type": "uint256"
        },
        {
          "internalType": "address",
          "name": "",
          "type": "address"
        }
      ],
      "name": "contributions",
      "outputs": [
        {
          "internalType": "uint256",
          "name": "",
          "type": "uint256"
        }
      ],
      "stateMutability": "view",
      "type": "function"
    },
    {
      "inputs": [
        {
          "internalType": "string",
          "name": "_title",
          "type": "string"
        },
        {
          "internalType": "string",
          "name": "_description",
          "type": "string"
        },
        {
          "internalType": "string",
          "name": "_category",
          "type": "string"
        },
        {
          "internalType": "string",
          "name": "_imageURI",
          "type": "string"
        },
        {
          "internalType": "uint256",
          "name": "_goalAmount",
          "type": "uint256"
        },
        {
          "internalType": "uint256",
          "name": "_durationDays",
          "type": "uint256"
        },
        {
          "components": [
            {
              "internalType": "string",
              "name": "title",
              "type": "string"
            },
            {
              "internalType": "string",
              "name": "description",
              "type": "string"
            },
            {
              "internalType": "uint256",
              "name": "amount",
              "type": "uint256"
            },
            {
              "internalType": "bool",
              "name": "completed",
              "type": "bool"
            },
            {
              "internalType": "bool",
              "name": "verified",
              "type": "bool"
            },
            {
              "internalType": "uint256",
              "name": "votesFor",
              "type": "uint256"
            },
            {
              "internalType": "uint256",
              "name": "votesAgainst",
              "type": "uint256"
            }
          ],
          "internalType": "struct ProjectFactory.Milestone[]",
          "name": "_milestones",
          "type": "tuple[]"
        }
      ],
      "name": "createProject",
      "outputs": [
        {
          "internalType": "uint256",
          "name": "",
          "type": "uint256"
        }
      ],
      "stateMutability": "nonpayable",
      "type": "function"
    },
    {
      "inputs": [
        {
          "internalType": "uint256",
          "name": "_projectId",
          "type": "uint256"
        },
        {
          "internalType": "address",
          "name": "_backer",
          "type": "address"
        }
      ],
      "name": "getContribution",
      "outputs": [
        {
          "internalType": "uint256",
          "name": "",
          "type": "uint256"
        }
      ],
      "stateMutability": "view",
      "type": "function"
    },
    {
      "inputs": [
        {
          "internalType": "uint256",
          "name": "_projectId",
          "type": "uint256"
        }
      ],
      "name": "getProject",
      "outputs": [
        {
          "components": [
            {
              "internalType": "address payable",
              "name": "creator",
              "type": "address"
            },
            {
              "internalType": "string",
              "name": "title",
              "type": "string"
            },
            {
              "internalType": "string",
              "name": "description",
              "type": "string"
            },
            {
              "internalType": "string",
              "name": "category",
              "type": "string"
            },
            {
              "internalType": "string",
              "name": "imageURI",
              "type": "string"
            },
            {
              "internalType": "uint256",
              "name": "goalAmount",
              "type": "uint256"
            },
            {
              "internalType": "uint256",
              "name": "currentAmount",
              "type": "uint256"
            },
            {
              "internalType": "uint256",
              "name": "deadline",
              "type": "uint256"
            },
            {
              "internalType": "uint256",
              "name": "createdAt",
              "type": "uint256"
            },
            {
              "internalType": "enum ProjectFactory.ProjectStatus",
              "name": "status",
              "type": "uint8"
            },
            {
              "internalType": "address",
              "name": "projectContract",
              "type": "address"
            }
          ],
          "internalType": "struct ProjectFactory.Project",
          "name": "",
          "type": "tuple"
        }
      ],
      "stateMutability": "view",
      "type": "function"
    },
    {
      "inputs": [
        {
          "internalType": "uint256",
          "name": "_projectId",
          "type": "uint256"
        }
      ],
      "name": "getProjectBackers",
      "outputs": [
        {
          "internalType": "address[]",
          "name": "",
          "type": "address[]"
        }
      ],
      "stateMutability": "view",
      "type": "function"
    },
    {
      "inputs": [
        {
          "internalType": "uint256",
          "name": "_projectId",
          "type": "uint256"
        }
      ],
      "name": "getProjectMilestones",
      "outputs": [
        {
          "components": [
            {
              "internalType": "string",
              "name": "title",
              "type": "string"
            },
            {
              "internalType": "string",
              "name": "description",
              "type": "string"
            },
            {
              "internalType": "uint256",
              "name": "amount",
              "type": "uint256"
            },
            {
              "internalType": "bool",
              "name": "completed",
              "type": "bool"
            },
            {
              "internalType": "bool",
              "name": "verified",
              "type": "bool"
            },
            {
              "internalType": "uint256",
              "name": "votesFor",
              "type": "uint256"
            },
            {
              "internalType": "uint256",
              "name": "votesAgainst",
              "type": "uint256"
            }
          ],
          "internalType": "struct ProjectFactory.Milestone[]",
          "name": "",
          "type": "tuple[]"
        }
      ],
      "stateMutability": "view",
      "type": "function"
    },
    {
      "inputs": [],
      "name": "owner",
      "outputs": [
        {
          "internalType": "address",
          "name": "",
          "type": "address"
        }
      ],
      "stateMutability": "view",
      "type": "function"
    },
    {
      "inputs": [],
      "name": "platformFeePercentage",
      "outputs": [
        {
          "internalType": "uint256",
          "name": "",
          "type": "uint256"
        }
      ],
      "stateMutability": "view",
      "type": "function"
    },
    {
      "inputs": [
        {
          "internalType": "uint256",
          "name": "",
          "type": "uint256"
        },
        {
          "internalType": "uint256",
          "name": "",
          "type": "uint256"
        }
      ],
      "name": "projectBackers",
      "outputs": [
        {
          "internalType": "address",
          "name": "",
          "type": "address"
        }
      ],
      "stateMutability": "view",
      "type": "function"
    },
    {
      "inputs": [],
      "name": "projectCount",
      "outputs": [
        {
          "internalType": "uint256",
          "name": "",
          "type": "uint256"
        }
      ],
      "stateMutability": "view",
      "type": "function"
    },
    {
      "inputs": [
        {
          "internalType": "uint256",
          "name": "",
          "type": "uint256"
        },
        {
          "internalType": "uint256",
          "name": "",
          "type": "uint256"
        }
      ],
      "name": "projectMilestones",
      "outputs": [
        {
          "internalType": "string",
          "name": "title",
          "type": "string"
        },
        {
          "internalType": "string",
          "name": "description",
          "type": "string"
        },
        {
          "internalType": "uint256",
          "name": "amount",
          "type": "uint256"
        },
        {
          "internalType": "bool",
          "name": "completed",
          "type": "bool"
        },
        {
          "internalType": "bool",
          "name": "verified",
          "type": "bool"
        },
        {
          "internalType": "uint256",
          "name": "votesFor",
          "type": "uint256"
        },
        {
          "internalType": "uint256",
          "name": "votesAgainst",
          "type": "uint256"
        }
      ],
      "stateMutability": "view",
      "type": "function"
    },
    {
      "inputs": [
        {
          "internalType": "uint256",
          "name": "",
          "type": "uint256"
        }
      ],
      "name": "projects",
      "outputs": [
        {
          "internalType": "address payable",
          "name": "creator",
          "type": "address"
        },
        {
          "internalType": "string",
          "name": "title",
          "type": "string"
        },
        {
          "internalType": "string",
          "name": "description",
          "type": "string"
        },
        {
          "internalType": "string",
          "name": "category",
          "type": "string"
        },
        {
          "internalType": "string",
          "name": "imageURI",
          "type": "string"
        },
        {
          "internalType": "uint256",
          "name": "goalAmount",
          "type": "uint256"
        },
        {
          "internalType": "uint256",
          "name": "currentAmount",
          "type": "uint256"
        },
        {
          "internalType": "uint256",
          "name": "deadline",
          "type": "uint256"
        },
        {
          "internalType": "uint256",
          "name": "createdAt",
          "type": "uint256"
        },
        {
          "internalType": "enum ProjectFactory.ProjectStatus",
          "name": "status",
          "type": "uint8"
        },
        {
          "internalType": "address",
          "name": "projectContract",
          "type": "address"
        }
      ],
      "stateMutability": "view",
      "type": "function"
    },
    {
      "inputs": [
        {
          "internalType": "uint256",
          "name": "_projectId",
          "type": "uint256"
        }
      ],
      "name": "refund",
      "outputs": [],
      "stateMutability": "nonpayable",
      "type": "function"
    },
    {
      "inputs": [],
      "name": "renounceOwnership",
      "outputs": [],
      "stateMutability": "nonpayable",
      "type": "function"
    },
    {
      "inputs": [
        {
          "internalType": "uint256",
          "name": "_newFee",
          "type": "uint256"
        }
      ],
      "name": "setPlatformFee",
      "outputs": [],
      "stateMutability": "nonpayable",
      "type": "function"
    },
    {
      "inputs": [
        {
          "internalType": "uint256",
          "name": "_projectId",
          "type": "uint256"
        },
        {
          "internalType": "uint256",
          "name": "_milestoneIndex",
          "type": "uint256"
        },
        {
          "internalType": "string",
          "name": "",
          "type": "string"
        }
      ],
      "name": "submitMilestone",
      "outputs": [],
      "stateMutability": "nonpayable",
      "type": "function"
    },
    {
      "inputs": [
        {
          "internalType": "address",
          "name": "newOwner",
          "type": "address"
        }
      ],
      "name": "transferOwnership",
      "outputs": [],
      "stateMutability": "nonpayable",
      "type": "function"
    },
    {
      "inputs": [
        {
          "internalType": "uint256",
          "name": "_projectId",
          "type": "uint256"
        },
        {
          "internalType": "uint256",
          "name": "_milestoneIndex",
          "type": "uint256"
        },
        {
          "internalType": "bool",
          "name": "_approve",
          "type": "bool"
        }
      ],
      "name": "voteOnMilestone",
      "outputs": [],
      "stateMutability": "nonpayable",
      "type": "function"
    }
  ],
  "bytecode": "0x608060405260026003553480156200001657600080fd5b5060405162002af138038062002af18339810160408190526200003991620000d0565b806001600160a01b0381166200006957604051631e4fbdf760e01b81526000600482015260240160405180910390fd5b620000748162000080565b50506001805562000102565b600080546001600160a01b038381166001600160a01b0319831681178455604051919092169283917f8be0079c531659141344cd1fd0a4f28419497f9722a3daafe3b4186f6b6457e09190a35050565b600060208284031215620000e357600080fd5b81516001600160a01b0381168114620000fb57600080fd5b9392505050565b6129df80620001126000396000f3fe6080604052600436106101145760003560e01c80636cb0adba116100a0578063c1cbbca711610064578063c1cbbca71461034f578063cdd78cfc14610362578063e081dbf914610378578063f0f3f2c814610398578063f2fde38b146103c557600080fd5b80636cb0adba1461029c578063715018a6146102cf578063770b02da146102e45780638da5cb5b14610304578063b04cee8f1461032257600080fd5b80631d2b51d0116100e75780631d2b51d0146101bb578063278ecde1146101f357806336fbad26146102135780633d891f591461023757806352766d801461026f57600080fd5b80630390e07a146101195780630e783d6d1461013b578063107046bd1461015b57806312e8e2c31461019b575b600080fd5b34801561012557600080fd5b506101396101343660046120ba565b6103e5565b005b34801561014757600080fd5b5061013961015636600461211f565b6105c6565b34801561016757600080fd5b5061017b610176366004612154565b6107fe565b6040516101929b9a999897969594939291906121eb565b60405180910390f35b3480156101a757600080fd5b506101396101b6366004612154565b610a8a565b3480156101c757600080fd5b506101db6101d6366004612291565b610adf565b6040516001600160a01b039091168152602001610192565b3480156101ff57600080fd5b5061013961020e366004612154565b610b17565b34801561021f57600080fd5b5061022960025481565b604051908152602001610192565b34801561024357600080fd5b506102296102523660046122ca565b600660209081526000928352604080842090915290825290205481565b34801561027b57600080fd5b5061028f61028a366004612154565b610d19565b60405161019291906122f6565b3480156102a857600080fd5b506102bc6102b7366004612291565b610f19565b60405161019297969594939291906123b3565b3480156102db57600080fd5b50610139611091565b3480156102f057600080fd5b506102296102ff366004612544565b6110a5565b34801561031057600080fd5b506000546001600160a01b03166101db565b34801561032e57600080fd5b5061034261033d366004612154565b611581565b6040516101929190612629565b61013961035d366004612154565b61161d565b34801561036e57600080fd5b5061022960035481565b34801561038457600080fd5b506102296103933660046122ca565b6118bb565b3480156103a457600080fd5b506103b86103b3366004612154565b611916565b6040516101929190612676565b3480156103d157600080fd5b506101396103e0366004612769565b611c3d565b826000811180156103f857506002548111155b61041d5760405162461bcd60e51b81526004016104149061278b565b60405180910390fd5b60008481526004602052604090205484906001600160a01b0316331461047b5760405162461bcd60e51b81526020600482015260136024820152722737ba10383937b532b1ba1031b932b0ba37b960691b6044820152606401610414565b60008581526004602052604090206001600982015460ff1660038111156104a4576104a46121b3565b146104ea5760405162461bcd60e51b8152602060048201526016602482015275141c9bda9958dd081b5d5cdd08189948199d5b99195960521b6044820152606401610414565b600086815260056020526040812080548790811061050a5761050a6127bb565b60009182526020909120600690910201600381015490915060ff16156105725760405162461bcd60e51b815260206004820152601b60248201527f4d696c6573746f6e6520616c726561647920636f6d706c6574656400000000006044820152606401610414565b60038101805460ff1916600117905560405187907f1b7218c0ac23ea9cbe4df603d2b340fbf469a115b73ea3d11460727f445d6be1906105b59089815260200190565b60405180910390a250505050505050565b826000811180156105d957506002548111155b6105f55760405162461bcd60e51b81526004016104149061278b565b600084815260066020908152604080832033845290915290205461065b5760405162461bcd60e51b815260206004820152601860248201527f4d7573742062652061206261636b657220746f20766f746500000000000000006044820152606401610414565b600084815260056020526040812080548590811061067b5761067b6127bb565b60009182526020909120600690910201600381015490915060ff166106e25760405162461bcd60e51b815260206004820152601760248201527f4d696c6573746f6e65206e6f74207375626d69747465640000000000000000006044820152606401610414565b6003810154610100900460ff161561073c5760405162461bcd60e51b815260206004820152601a60248201527f4d696c6573746f6e6520616c72656164792076657269666965640000000000006044820152606401610414565b821561077c576000858152600660209081526040808320338452909152812054600483018054919290916107719084906127e7565b909155506107b19050565b6000858152600660209081526040808320338452909152812054600583018054919290916107ab9084906127e7565b90915550505b600085815260046020526040902060068101546107d090600290612800565b826004015411156107f65760038201805461ff0019166101001790556107f68686611c7b565b505050505050565b600460205260009081526040902080546001820180546001600160a01b03909216929161082a90612822565b80601f016020809104026020016040519081016040528092919081815260200182805461085690612822565b80156108a35780601f10610878576101008083540402835291602001916108a3565b820191906000526020600020905b81548152906001019060200180831161088657829003601f168201915b5050505050908060020180546108b890612822565b80601f01602080910402602001604051908101604052809291908181526020018280546108e490612822565b80156109315780601f1061090657610100808354040283529160200191610931565b820191906000526020600020905b81548152906001019060200180831161091457829003601f168201915b50505050509080600301805461094690612822565b80601f016020809104026020016040519081016040528092919081815260200182805461097290612822565b80156109bf5780601f10610994576101008083540402835291602001916109bf565b820191906000526020600020905b8154815290600101906020018083116109a257829003601f168201915b5050505050908060040180546109d490612822565b80601f0160208091040260200160405190810160405280929190818152602001828054610a0090612822565b8015610a4d5780601f10610a2257610100808354040283529160200191610a4d565b820191906000526020600020905b815481529060010190602001808311610a3057829003601f168201915b505050600584015460068501546007860154600887015460099097015495969295919450925060ff8116906001600160a01b03610100909104168b565b610a92611ebf565b6005811115610ada5760405162461bcd60e51b81526020600482015260146024820152734665652063616e6e6f742065786365656420352560601b6044820152606401610414565b600355565b60076020528160005260406000208181548110610afb57600080fd5b6000918252602090912001546001600160a01b03169150829050565b80600081118015610b2a57506002548111155b610b465760405162461bcd60e51b81526004016104149061278b565b610b4e611eec565b6000828152600460205260409020600781015442118015610b76575080600501548160060154105b610bb95760405162461bcd60e51b8152602060048201526014602482015273526566756e64206e6f7420617661696c61626c6560601b6044820152606401610414565b6000600982015460ff166003811115610bd457610bd46121b3565b03610c255760098101805460ff1916600290811790915560405184917f35872be4c2085eaf9ca9a10d056eefec79968f825846792411ede75f331e939291610c1c9190612856565b60405180910390a25b600083815260066020908152604080832033845290915290205480610c8c5760405162461bcd60e51b815260206004820152601960248201527f4e6f20636f6e747269627574696f6e20746f20726566756e64000000000000006044820152606401610414565b600084815260066020908152604080832033808552925280832083905551909183156108fc02918491818181858888f19350505050158015610cd2573d6000803e3d6000fd5b50604051818152339085907f7a482fdeb6bc9a1376f597068a214a7a39472bb2eff1b8cad21ba04f49ddca1b9060200160405180910390a35050610d1560018055565b5050565b606081600081118015610d2e57506002548111155b610d4a5760405162461bcd60e51b81526004016104149061278b565b600083815260056020908152604080832080548251818502810185019093528083529193909284015b82821015610f0c57838290600052602060002090600602016040518060e0016040529081600082018054610da690612822565b80601f0160208091040260200160405190810160405280929190818152602001828054610dd290612822565b8015610e1f5780601f10610df457610100808354040283529160200191610e1f565b820191906000526020600020905b815481529060010190602001808311610e0257829003601f168201915b50505050508152602001600182018054610e3890612822565b80601f0160208091040260200160405190810160405280929190818152602001828054610e6490612822565b8015610eb15780601f10610e8657610100808354040283529160200191610eb1565b820191906000526020600020905b815481529060010190602001808311610e9457829003601f168201915b50505091835250506002820154602080830191909152600383015460ff8082161515604085015261010090910416151560608301526004830154608083015260059092015460a0909101529082526001929092019101610d73565b5050505091505b50919050565b60056020528160005260406000208181548110610f3557600080fd5b906000526020600020906006020160009150915050806000018054610f5990612822565b80601f0160208091040260200160405190810160405280929190818152602001828054610f8590612822565b8015610fd25780601f10610fa757610100808354040283529160200191610fd2565b820191906000526020600020905b815481529060010190602001808311610fb557829003601f168201915b505050505090806001018054610fe790612822565b80601f016020809104026020016040519081016040528092919081815260200182805461101390612822565b80156110605780601f1061103557610100808354040283529160200191611060565b820191906000526020600020905b81548152906001019060200180831161104357829003601f168201915b5050506002840154600385015460048601546005909601549495919460ff8083169550610100909204909116925087565b611099611ebf565b6110a36000611f16565b565b60008084116110f65760405162461bcd60e51b815260206004820152601b60248201527f476f616c206d7573742062652067726561746572207468616e203000000000006044820152606401610414565b6000831180156111075750603c8311155b6111535760405162461bcd60e51b815260206004820152601a60248201527f4475726174696f6e206d75737420626520312d363020646179730000000000006044820152606401610414565b60008251116111a45760405162461bcd60e51b815260206004820152601f60248201527f4174206c65617374206f6e65206d696c6573746f6e65207265717569726564006044820152606401610414565b6000805b83518110156111ee578381815181106111c3576111c36127bb565b602002602001015160400151826111da91906127e7565b9150806111e681612864565b9150506111a8565b5084811461123e5760405162461bcd60e51b815260206004820152601a60248201527f4d696c6573746f6e6573206d75737420657175616c20676f616c0000000000006044820152606401610414565b6002805490600061124e83612864565b9091555060009050611263856201518061287d565b61126d90426127e7565b9050604051806101600160405280336001600160a01b031681526020018b81526020018a815260200189815260200188815260200187815260200160008152602001828152602001428152602001600060038111156112ce576112ce6121b3565b81523060209182015260025460009081526004825260409020825181546001600160a01b0319166001600160a01b0390911617815590820151600182019061131690826128da565b506040820151600282019061132b90826128da565b506060820151600382019061134090826128da565b506080820151600482019061135590826128da565b5060a0820151600582015560c0820151600682015560e08201516007820155610100820151600882015561012082015160098201805460ff191660018360038111156113a3576113a36121b3565b02179055506101409190910151600990910180546001600160a01b0390921661010002610100600160a81b031990921691909117905560005b8451811015611527576005600060025481526020019081526020016000206040518060e00160405280878481518110611417576114176127bb565b602002602001015160000151815260200187848151811061143a5761143a6127bb565b602002602001015160200151815260200187848151811061145d5761145d6127bb565b602090810291909101810151604090810151835260008383018190529083018190526060830181905260809092018290528354600181018555938252902081519192600602019081906114b090826128da565b50602082015160018201906114c590826128da565b50604082015160028201556060820151600382018054608085015115156101000261ff00199315159390931661ffff199091161791909117905560a0820151600482015560c0909101516005909101558061151f81612864565b9150506113dc565b50336001600160a01b03166002547f483013d4a1d5e8ba43089bda8f1a92b959e32d6fc582556f800267dd809e58938c89856040516115689392919061299a565b60405180910390a3505060025498975050505050505050565b60608160008111801561159657506002548111155b6115b25760405162461bcd60e51b81526004016104149061278b565b6000838152600760209081526040918290208054835181840281018401909452808452909183018282801561161057602002820191906000526020600020905b81546001600160a01b031681526001909101906020018083116115f2575b5050505050915050919050565b8060008111801561163057506002548111155b61164c5760405162461bcd60e51b81526004016104149061278b565b816000808281526004602052604090206009015460ff166003811115611674576116746121b3565b146116b65760405162461bcd60e51b815260206004820152601260248201527150726f6a656374206e6f742061637469766560701b6044820152606401610414565b60008181526004602052604090206007015442106117165760405162461bcd60e51b815260206004820152601760248201527f50726f6a65637420646561646c696e65207061737365640000000000000000006044820152606401610414565b61171e611eec565b6000341161177a5760405162461bcd60e51b815260206004820152602360248201527f436f6e747269627574696f6e206d75737420626520677265617465722074686160448201526206e20360ec1b6064820152608401610414565b6000838152600460209081526040808320600683528184203385529092528220549091036117d15760008481526007602090815260408220805460018101825590835291200180546001600160a01b031916331790555b6000848152600660209081526040808320338452909152812080543492906117fa9084906127e7565b925050819055503481600601600082825461181591906127e7565b909155505060058101546006820154106118755760098101805460ff1916600190811790915560405185917f35872be4c2085eaf9ca9a10d056eefec79968f825846792411ede75f331e93929161186c9190612856565b60405180910390a25b604051348152339085907f0a4a91237423e0a1766a761c7cb029311d8b95d6b1b81db1b949a70c98b4e08e9060200160405180910390a3506118b660018055565b505050565b6000826000811180156118d057506002548111155b6118ec5760405162461bcd60e51b81526004016104149061278b565b505060009182526006602090815260408084206001600160a01b0393909316845291905290205490565b61191e611f66565b8160008111801561193157506002548111155b61194d5760405162461bcd60e51b81526004016104149061278b565b6000838152600460209081526040918290208251610160810190935280546001600160a01b03168352600181018054919284019161198a90612822565b80601f01602080910402602001604051908101604052809291908181526020018280546119b690612822565b8015611a035780601f106119d857610100808354040283529160200191611a03565b820191906000526020600020905b8154815290600101906020018083116119e657829003601f168201915b50505050508152602001600282018054611a1c90612822565b80601f0160208091040260200160405190810160405280929190818152602001828054611a4890612822565b8015611a955780601f10611a6a57610100808354040283529160200191611a95565b820191906000526020600020905b815481529060010190602001808311611a7857829003601f168201915b50505050508152602001600382018054611aae90612822565b80601f0160208091040260200160405190810160405280929190818152602001828054611ada90612822565b8015611b275780601f10611afc57610100808354040283529160200191611b27565b820191906000526020600020905b815481529060010190602001808311611b0a57829003601f168201915b50505050508152602001600482018054611b4090612822565b80601f0160208091040260200160405190810160405280929190818152602001828054611b6c90612822565b8015611bb95780601f10611b8e57610100808354040283529160200191611bb9565b820191906000526020600020905b815481529060010190602001808311611b9c57829003601f168201915b505050918352505060058201546020820152600682015460408201526007820154606082015260088201546080820152600982015460a09091019060ff166003811115611c0857611c086121b3565b6003811115611c1957611c196121b3565b81526009919091015461010090046001600160a01b03166020909101529392505050565b611c45611ebf565b6001600160a01b038116611c6f57604051631e4fbdf760e01b815260006004820152602401610414565b611c7881611f16565b50565b600082815260046020908152604080832060059092528220805491929184908110611ca857611ca86127bb565b906000526020600020906006020190508060030160019054906101000a900460ff16611d0f5760405162461bcd60e51b8152602060048201526016602482015275135a5b195cdd1bdb99481b9bdd081d995c9a599a595960521b6044820152606401610414565b600060646003548360020154611d25919061287d565b611d2f9190612800565b90506000818360020154611d4391906129bf565b84546040519192506001600160a01b03169082156108fc029083906000818181858888f19350505050158015611d7d573d6000803e3d6000fd5b50600080546040516001600160a01b039091169184156108fc02918591818181858888f19350505050158015611db7573d6000803e3d6000fd5b50604080518281526020810187905287917f24d2f6e8ac6c13d1e7610752ab0b7ce03d5043806a65d3d631ae859ad81d159b910160405180910390a2600160005b600088815260056020526040902054811015611e6c576000888152600560205260409020805482908110611e2e57611e2e6127bb565b906000526020600020906006020160030160019054906101000a900460ff16611e5a5760009150611e6c565b80611e6481612864565b915050611df8565b508015611eb65760098501805460ff1916600390811790915560405188917f35872be4c2085eaf9ca9a10d056eefec79968f825846792411ede75f331e9392916105b59190612856565b50505050505050565b6000546001600160a01b031633146110a35760405163118cdaa760e01b8152336004820152602401610414565b600260015403611f0f57604051633ee5aeb560e01b815260040160405180910390fd5b6002600155565b600080546001600160a01b038381166001600160a01b0319831681178455604051919092169283917f8be0079c531659141344cd1fd0a4f28419497f9722a3daafe3b4186f6b6457e09190a35050565b60405180610160016040528060006001600160a01b03168152602001606081526020016060815260200160608152602001606081526020016000815260200160008152602001600081526020016000815260200160006003811115611fcd57611fcd6121b3565b8152600060209091015290565b634e487b7160e01b600052604160045260246000fd5b60405160e0810167ffffffffffffffff8111828210171561201357612013611fda565b60405290565b604051601f8201601f1916810167ffffffffffffffff8111828210171561204257612042611fda565b604052919050565b600082601f83011261205b57600080fd5b813567ffffffffffffffff81111561207557612075611fda565b612088601f8201601f1916602001612019565b81815284602083860101111561209d57600080fd5b816020850160208301376000918101602001919091529392505050565b6000806000606084860312156120cf57600080fd5b8335925060208401359150604084013567ffffffffffffffff8111156120f457600080fd5b6121008682870161204a565b9150509250925092565b8035801515811461211a57600080fd5b919050565b60008060006060848603121561213457600080fd5b833592506020840135915061214b6040850161210a565b90509250925092565b60006020828403121561216657600080fd5b5035919050565b6000815180845260005b8181101561219357602081850181015186830182015201612177565b506000602082860101526020601f19601f83011685010191505092915050565b634e487b7160e01b600052602160045260246000fd5b600481106121e757634e487b7160e01b600052602160045260246000fd5b9052565b6001600160a01b038c81168252610160602083018190526000916122118483018f61216d565b91508382036040850152612225828e61216d565b91508382036060850152612239828d61216d565b9150838203608085015261224d828c61216d565b92508960a08501528860c08501528760e0850152866101008501526122766101208501876121c9565b80851661014085015250509c9b505050505050505050505050565b600080604083850312156122a457600080fd5b50508035926020909101359150565b80356001600160a01b038116811461211a57600080fd5b600080604083850312156122dd57600080fd5b823591506122ed602084016122b3565b90509250929050565b60006020808301818452808551808352604092508286019150828160051b87010184880160005b838110156123a557603f19898403018552815160e081518186526123438287018261216d565b915050888201518582038a87015261235b828261216d565b838a0151878b015260608085015115159088015260808085015115159088015260a0808501519088015260c09384015193909601929092525050938601939086019060010161231d565b509098975050505050505050565b60e0815260006123c660e083018a61216d565b82810360208401526123d8818a61216d565b604084019890985250509315156060850152911515608084015260a083015260c09091015292915050565b600082601f83011261241457600080fd5b8135602067ffffffffffffffff8083111561243157612431611fda565b8260051b612440838201612019565b938452858101830193838101908886111561245a57600080fd5b84880192505b85831015612538578235848111156124785760008081fd5b880160e0818b03601f19018113156124905760008081fd5b612498611ff0565b87830135878111156124aa5760008081fd5b6124b88d8a8387010161204a565b825250604080840135888111156124cf5760008081fd5b6124dd8e8b8388010161204a565b8a8401525060608085013582840152608091506124fb82860161210a565b9083015260a061250c85820161210a565b9183019190915260c0848101359183019190915291909201359082015282529184019190840190612460565b98975050505050505050565b600080600080600080600060e0888a03121561255f57600080fd5b873567ffffffffffffffff8082111561257757600080fd5b6125838b838c0161204a565b985060208a013591508082111561259957600080fd5b6125a58b838c0161204a565b975060408a01359150808211156125bb57600080fd5b6125c78b838c0161204a565b965060608a01359150808211156125dd57600080fd5b6125e98b838c0161204a565b955060808a0135945060a08a0135935060c08a013591508082111561260d57600080fd5b5061261a8a828b01612403565b91505092959891949750929550565b6020808252825182820181905260009190848201906040850190845b8181101561266a5783516001600160a01b031683529284019291840191600101612645565b50909695505050505050565b602081526126906020820183516001600160a01b03169052565b600060208301516101608060408501526126ae61018085018361216d565b91506040850151601f19808685030160608701526126cc848361216d565b935060608701519150808685030160808701526126e9848361216d565b935060808701519150808685030160a087015250612707838261216d565b92505060a085015160c085015260c085015160e085015260e0850151610100818187015280870151915050610120818187015280870151915050610140612750818701836121c9565b909501516001600160a01b031693019290925250919050565b60006020828403121561277b57600080fd5b612784826122b3565b9392505050565b602080825260169082015275141c9bda9958dd08191bd95cc81b9bdd08195e1a5cdd60521b604082015260600190565b634e487b7160e01b600052603260045260246000fd5b634e487b7160e01b600052601160045260246000fd5b808201808211156127fa576127fa6127d1565b92915050565b60008261281d57634e487b7160e01b600052601260045260246000fd5b500490565b600181811c9082168061283657607f821691505b602082108103610f1357634e487b7160e01b600052602260045260246000fd5b602081016127fa82846121c9565b600060018201612876576128766127d1565b5060010190565b80820281158282048414176127fa576127fa6127d1565b601f8211156118b657600081815260208120601f850160051c810160208610156128bb5750805b601f850160051c820191505b818110156107f6578281556001016128c7565b815167ffffffffffffffff8111156128f4576128f4611fda565b612908816129028454612822565b84612894565b602080601f83116001811461293d57600084156129255750858301515b600019600386901b1c1916600185901b1785556107f6565b600085815260208120601f198616915b8281101561296c5788860151825594840194600190910190840161294d565b508582101561298a5787850151600019600388901b60f8161c191681555b5050505050600190811b01905550565b6060815260006129ad606083018661216d565b60208301949094525060400152919050565b818103818111156127fa576127fa6127d156fea164736f6c6343000814000a",
  "linkReferences": {},
  "deployedLinkReferences": {}
}