{
  "_format": "hh-sol-artifact-1",
  "contractName": "RewardNFT",
  "sourceName": "contracts/RewardNFT.sol",
  "abi": [
    {
      "inputs": [
        {
          "internalType": "address",
          "name": "_projectFactory",
          "type": "address"
        },
        {
          "internalType": "address",
          "name": "initialOwner",
          "type": "address"
        }
      ],
      "stateMutability": "nonpayable",
      "type": "constructor"
    },
    {
      "inputs": [],
      "name": "ERC721EnumerableForbiddenBatchMint",
      "type": "error"
    },
    {
      "inputs": [
        {
          "internalType": "address",
          "name": "sender",
          "type": "address"
        },
        {
          "internalType": "uint256",
          "name": "tokenId",
          "type": "uint256"
        },
        {
          "internalType": "address",
          "name": "owner",
          "type": "address"
        }
      ],
      "name": "ERC721IncorrectOwner",
      "type": "error"
    },
    {
      "inputs": [
        {
          "internalType": "address",
          "name": "operator",
          "type": "address"
        },
        {
          "internalType": "uint256",
          "name": "tokenId",
          "type": "uint256"
        }
      ],
      "name": "ERC721InsufficientApproval",
      "type": "error"
    },
    {
      "inputs": [
        {
          "internalType": "address",
          "name": "approver",
          "type": "address"
        }
      ],
      "name": "ERC721InvalidApprover",
      "type": "error"
    },
    {
      "inputs": [
        {
          "internalType": "address",
          "name": "operator",
          "type": "address"
        }
      ],
      "name": "ERC721InvalidOperator",
      "type": "error"
    },
    {
      "inputs": [
        {
          "internalType": "address",
          "name": "owner",
          "type": "address"
        }
      ],
      "name": "ERC721InvalidOwner",
      "type": "error"
    },
    {
      "inputs": [
        {
          "internalType": "address",
          "name": "receiver",
          "type": "address"
        }
      ],
      "name": "ERC721InvalidReceiver",
      "type": "error"
    },
    {
      "inputs": [
        {
          "internalType": "address",
          "name": "sender",
          "type": "address"
        }
      ],
      "name": "ERC721InvalidSender",
      "type": "error"
    },
    {
      "inputs": [
        {
          "internalType": "uint256",
          "name": "tokenId",
          "type": "uint256"
        }
      ],
      "name": "ERC721NonexistentToken",
      "type": "error"
    },
    {
      "inputs": [
        {
          "internalType": "address",
          "name": "owner",
          "type": "address"
        },
        {
          "internalType": "uint256",
          "name": "index",
          "type": "uint256"
        }
      ],
      "name": "ERC721OutOfBoundsIndex",
      "type": "error"
    },
    {
      "inputs": [
        {
          "internalType": "address",
          "name": "owner",
          "type": "address"
        }
      ],
      "name": "OwnableInvalidOwner",
      "type": "error"
    },
    {
      "inputs": [
        {
          "internalType": "address",
          "name": "account",
          "type": "address"
        }
      ],
      "name": "OwnableUnauthorizedAccount",
      "type": "error"
    },
    {
      "anonymous": false,
      "inputs": [
        {
          "indexed": true,
          "internalType": "address",
          "name": "owner",
          "type": "address"
        },
        {
          "indexed": true,
          "internalType": "address",
          "name": "approved",
          "type": "address"
        },
        {
          "indexed": true,
          "internalType": "uint256",
          "name": "tokenId",
          "type": "uint256"
        }
      ],
      "name": "Approval",
      "type": "event"
    },
    {
      "anonymous": false,
      "inputs": [
        {
          "indexed": true,
          "internalType": "address",
          "name": "owner",
          "type": "address"
        },
        {
          "indexed": true,
          "internalType": "address",
          "name": "operator",
          "type": "address"
        },
        {
          "indexed": false,
          "internalType": "bool",
          "name": "approved",
          "type": "bool"
        }
      ],
      "name": "ApprovalForAll",
      "type": "event"
    },
    {
      "anonymous": false,
      "inputs": [
        {
          "indexed": false,
          "internalType": "uint256",
          "name": "_fromTokenId",
          "type": "uint256"
        },
        {
          "indexed": false,
          "internalType": "uint256",
          "name": "_toTokenId",
          "type": "uint256"
        }
      ],
      "name": "BatchMetadataUpdate",
      "type": "event"
    },
    {
      "anonymous": false,
      "inputs": [
        {
          "indexed": false,
          "internalType": "uint256",
          "name": "_tokenId",
          "type": "uint256"
        }
      ],
      "name": "MetadataUpdate",
      "type": "event"
    },
    {
      "anonymous": false,
      "inputs": [
        {
          "indexed": true,
          "internalType": "address",
          "name": "previousOwner",
          "type": "address"
        },
        {
          "indexed": true,
          "internalType": "address",
          "name": "newOwner",
          "type": "address"
        }
      ],
      "name": "OwnershipTransferred",
      "type": "event"
    },
    {
      "anonymous": false,
      "inputs": [
        {
          "indexed": true,
          "internalType": "address",
          "name": "backer",
          "type": "address"
        },
        {
          "indexed": true,
          "internalType": "uint256",
          "name": "tokenId",
          "type": "uint256"
        },
        {
          "indexed": true,
          "internalType": "uint256",
          "name": "projectId",
          "type": "uint256"
        },
        {
          "indexed": false,
          "internalType": "uint256",
          "name": "tier",
          "type": "uint256"
        }
      ],
      "name": "RewardMinted",
      "type": "event"
    },
    {
      "anonymous": false,
      "inputs": [
        {
          "indexed": true,
          "internalType": "uint256",
          "name": "tierId",
          "type": "uint256"
        },
        {
          "indexed": false,
          "internalType": "string",
          "name": "name",
          "type": "string"
        },
        {
          "indexed": false,
          "internalType": "uint256",
          "name": "minContribution",
          "type": "uint256"
        }
      ],
      "name": "TierCreated",
      "type": "event"
    },
    {
      "anonymous": false,
      "inputs": [
        {
          "indexed": true,
          "internalType": "address",
          "name": "from",
          "type": "address"
        },
        {
          "indexed": true,
          "internalType": "address",
          "name": "to",
          "type": "address"
        },
        {
          "indexed": true,
          "internalType": "uint256",
          "name": "tokenId",
          "type": "uint256"
        }
      ],
      "name": "Transfer",
      "type": "event"
    },
    {
      "inputs": [
        {
          "internalType": "string",
          "name": "_name",
          "type": "string"
        },
        {
          "internalType": "uint256",
          "name": "_minContribution",
          "type": "uint256"
        },
        {
          "internalType": "string",
          "name": "_baseURI",
          "type": "string"
        }
      ],
      "name": "addTier",
      "outputs": [],
      "stateMutability": "nonpayable",
      "type": "function"
    },
    {
      "inputs": [
        {
          "internalType": "address",
          "name": "to",
          "type": "address"
        },
        {
          "internalType": "uint256",
          "name": "tokenId",
          "type": "uint256"
        }
      ],
      "name": "approve",
      "outputs": [],
      "stateMutability": "nonpayable",
      "type": "function"
    },
    {
      "inputs": [
        {
          "internalType": "address",
          "name": "owner",
          "type": "address"
        }
      ],
      "name": "balanceOf",
      "outputs": [
        {
          "internalType": "uint256",
          "name": "",
          "type": "uint256"
        }
      ],
      "stateMutability": "view",
      "type": "function"
    },
    {
      "inputs": [
        {
          "internalType": "uint256",
          "name": "tokenId",
          "type": "uint256"
        }
      ],
      "name": "getApproved",
      "outputs": [
        {
          "internalType": "address",
          "name": "",
          "type": "address"
        }
      ],
      "stateMutability": "view",
      "type": "function"
    },
    {
      "inputs": [
        {
          "internalType": "uint256",
          "name": "_projectId",
          "type": "uint256"
        },
        {
          "internalType": "address",
          "name": "_backer",
          "type": "address"
        }
      ],
      "name": "getBackerNFTs",
      "outputs": [
        {
          "internalType": "uint256[]",
          "name": "",
          "type": "uint256[]"
        }
      ],
      "stateMutability": "view",
      "type": "function"
    },
    {
      "inputs": [
        {
          "internalType": "uint256",
          "name": "_tokenId",
          "type": "uint256"
        }
      ],
      "name": "getNFTMetadata",
      "outputs": [
        {
          "components": [
            {
              "internalType": "uint256",
              "name": "projectId",
              "type": "uint256"
            },
            {
              "internalType": "uint256",
              "name": "contribution",
              "type": "uint256"
            },
            {
              "internalType": "uint256",
              "name": "tier",
              "type": "uint256"
            },
            {
              "internalType": "uint256",
              "name": "mintedAt",
              "type": "uint256"
            }
          ],
          "internalType": "struct RewardNFT.NFTMetadata",
          "name": "",
          "type": "tuple"
        }
      ],
      "stateMutability": "view",
      "type": "function"
    },
    {
      "inputs": [
        {
          "internalType": "uint256",
          "name": "_tier",
          "type": "uint256"
        }
      ],
      "name": "getTierInfo",
      "outputs": [
        {
          "components": [
            {
              "internalType": "string",
              "name": "name",
              "type": "string"
            },
            {
              "internalType": "uint256",
              "name": "minContribution",
              "type": "uint256"
            },
            {
              "internalType": "string",
              "name": "baseURI",
              "type": "string"
            },
            {
              "internalType": "bool",
              "name": "active",
              "type": "bool"
            }
          ],
          "internalType": "struct RewardNFT.RewardTier",
          "name": "",
          "type": "tuple"
        }
      ],
      "stateMutability": "view",
      "type": "function"
    },
    {
      "inputs": [
        {
          "internalType": "address",
          "name": "owner",
          "type": "address"
        },
        {
          "internalType": "address",
          "name": "operator",
          "type": "address"
        }
      ],
      "name": "isApprovedForAll",
      "outputs": [
        {
          "internalType": "bool",
          "name": "",
          "type": "bool"
        }
      ],
      "stateMutability": "view",
      "type": "function"
    },
    {
      "inputs": [
        {
          "internalType": "address",
          "name": "_backer",
          "type": "address"
        },
        {
          "internalType": "uint256",
          "name": "_projectId",
          "type": "uint256"
        },
        {
          "internalType": "uint256",
          "name": "_contribution",
          "type": "uint256"
        }
      ],
      "name": "mintReward",
      "outputs": [
        {
          "internalType": "uint256",
          "name": "",
          "type": "uint256"
        }
      ],
      "stateMutability": "nonpayable",
      "type": "function"
    },
    {
      "inputs": [],
      "name": "name",
      "outputs": [
        {
          "internalType": "string",
          "name": "",
          "type": "string"
        }
      ],
      "stateMutability": "view",
      "type": "function"
    },
    {
      "inputs": [
        {
          "internalType": "uint256",
          "name": "",
          "type": "uint256"
        }
      ],
      "name": "nftMetadata",
      "outputs": [
        {
          "internalType": "uint256",
          "name": "projectId",
          "type": "uint256"
        },
        {
          "internalType": "uint256",
          "name": "contribution",
          "type": "uint256"
        },
        {
          "internalType": "uint256",
          "name": "tier",
          "type": "uint256"
        },
        {
          "internalType": "uint256",
          "name": "mintedAt",
          "type": "uint256"
        }
      ],
      "stateMutability": "view",
      "type": "function"
    },
    {
      "inputs": [],
      "name": "owner",
      "outputs": [
        {
          "internalType": "address",
          "name": "",
          "type": "address"
        }
      ],
      "stateMutability": "view",
      "type": "function"
    },
    {
      "inputs": [
        {
          "internalType": "uint256",
          "name": "tokenId",
          "type": "uint256"
        }
      ],
      "name": "ownerOf",
      "outputs": [
        {
          "internalType": "address",
          "name": "",
          "type": "address"
        }
      ],
      "stateMutability": "view",
      "type": "function"
    },
    {
      "inputs": [
        {
          "internalType": "uint256",
          "name": "",
          "type": "uint256"
        },
        {
          "internalType": "address",
          "name": "",
          "type": "address"
        },
        {
          "internalType": "uint256",
          "name": "",
          "type": "uint256"
        }
      ],
      "name": "projectBackerNFTs",
      "outputs": [
        {
          "internalType": "uint256",
          "name": "",
          "type": "uint256"
        }
      ],
      "stateMutability": "view",
      "type": "function"
    },
    {
      "inputs": [],
      "name": "projectFactory",
      "outputs": [
        {
          "internalType": "address",
          "name": "",
          "type": "address"
        }
      ],
      "stateMutability": "view",
      "type": "function"
    },
    {
      "inputs": [],
      "name": "renounceOwnership",
      "outputs": [],
      "stateMutability": "nonpayable",
      "type": "function"
    },
    {
      "inputs": [
        {
          "internalType": "uint256",
          "name": "",
          "type": "uint256"
        }
      ],
      "name": "rewardTiers",
      "outputs": [
        {
          "internalType": "string",
          "name": "name",
          "type": "string"
        },
        {
          "internalType": "uint256",
          "name": "minContribution",
          "type": "uint256"
        },
        {
          "internalType": "string",
          "name": "baseURI",
          "type": "string"
        },
        {
          "internalType": "bool",
          "name": "active",
          "type": "bool"
        }
      ],
      "stateMutability": "view",
      "type": "function"
    },
    {
      "inputs": [
        {
          "internalType": "address",
          "name": "from",
          "type": "address"
        },
        {
          "internalType": "address",
          "name": "to",
          "type": "address"
        },
        {
          "internalType": "uint256",
          "name": "tokenId",
          "type": "uint256"
        }
      ],
      "name": "safeTransferFrom",
      "outputs": [],
      "stateMutability": "nonpayable",
      "type": "function"
    },
    {
      "inputs": [
        {
          "internalType": "address",
          "name": "from",
          "type": "address"
        },
        {
          "internalType": "address",
          "name": "to",
          "type": "address"
        },
        {
          "internalType": "uint256",
          "name": "tokenId",
          "type": "uint256"
        },
        {
          "internalType": "bytes",
          "name": "data",
          "type": "bytes"
        }
      ],
      "name": "safeTransferFrom",
      "outputs": [],
      "stateMutability": "nonpayable",
      "type": "function"
    },
    {
      "inputs": [
        {
          "internalType": "address",
          "name": "operator",
          "type": "address"
        },
        {
          "internalType": "bool",
          "name": "approved",
          "type": "bool"
        }
      ],
      "name": "setApprovalForAll",
      "outputs": [],
      "stateMutability": "nonpayable",
      "type": "function"
    },
    {
      "inputs": [
        {
          "internalType": "address",
          "name": "_newFactory",
          "type": "address"
        }
      ],
      "name": "setProjectFactory",
      "outputs": [],
      "stateMutability": "nonpayable",
      "type": "function"
    },
    {
      "inputs": [
        {
          "internalType": "uint256",
          "name": "_tier",
          "type": "uint256"
        },
        {
          "internalType": "bool",
          "name": "_active",
          "type": "bool"
        }
      ],
      "name": "setTierStatus",
      "outputs": [],
      "stateMutability": "nonpayable",
      "type": "function"
    },
    {
      "inputs": [
        {
          "internalType": "bytes4",
          "name": "interfaceId",
          "type": "bytes4"
        }
      ],
      "name": "supportsInterface",
      "outputs": [
        {
          "internalType": "bool",
          "name": "",
          "type": "bool"
        }
      ],
      "stateMutability": "view",
      "type": "function"
    },
    {
      "inputs": [],
      "name": "symbol",
      "outputs": [
        {
          "internalType": "string",
          "name": "",
          "type": "string"
        }
      ],
      "stateMutability": "view",
      "type": "function"
    },
    {
      "inputs": [],
      "name": "tierCount",
      "outputs": [
        {
          "internalType": "uint256",
          "name": "",
          "type": "uint256"
        }
      ],
      "stateMutability": "view",
      "type": "function"
    },
    {
      "inputs": [
        {
          "internalType": "uint256",
          "name": "index",
          "type": "uint256"
        }
      ],
      "name": "tokenByIndex",
      "outputs": [
        {
          "internalType": "uint256",
          "name": "",
          "type": "uint256"
        }
      ],
      "stateMutability": "view",
      "type": "function"
    },
    {
      "inputs": [
        {
          "internalType": "address",
          "name": "owner",
          "type": "address"
        },
        {
          "internalType": "uint256",
          "name": "index",
          "type": "uint256"
        }
      ],
      "name": "tokenOfOwnerByIndex",
      "outputs": [
        {
          "internalType": "uint256",
          "name": "",
          "type": "uint256"
        }
      ],
      "stateMutability": "view",
      "type": "function"
    },
    {
      "inputs": [
        {
          "internalType": "uint256",
          "name": "tokenId",
          "type": "uint256"
        }
      ],
      "name": "tokenURI",
      "outputs": [
        {
          "internalType": "string",
          "name": "",
          "type": "string"
        }
      ],
      "stateMutability": "view",
      "type": "function"
    },
    {
      "inputs": [],
      "name": "totalSupply",
      "outputs": [
        {
          "internalType": "uint256",
          "name": "",
          "type": "uint256"
        }
      ],
      "stateMutability": "view",
      "type": "function"
    },
    {
      "inputs": [
        {
          "internalType": "address",
          "name": "from",
          "type": "address"
        },
        {
          "internalType": "address",
          "name": "to",
          "type": "address"
        },
        {
          "internalType": "uint256",
          "name": "tokenId",
          "type": "uint256"
        }
      ],
      "name": "transferFrom",
      "outputs": [],
      "stateMutability": "nonpayable",
      "type": "function"
    },
    {
      "inputs": [
        {
          "internalType": "address",
          "name": "newOwner",
          "type": "address"
        }
      ],
      "name": "transferOwnership",
      "outputs": [],
      "stateMutability": "nonpayable",
      "type": "function"
    }
  ],
  "bytecode": "0x60806040523480156200001157600080fd5b5060405162002b0738038062002b07833981016040819052620000349162000404565b806040518060400160405280601781526020017f437265617465537068657265204261636b6572204e46540000000000000000008152506040518060400160405280600581526020016410d4d3919560da1b81525081600090816200009a9190620004e1565b506001620000a98282620004e1565b5050506001600160a01b038116620000db57604051631e4fbdf760e01b81526000600482015260240160405180910390fd5b620000e68162000114565b50600d80546001600160a01b0319166001600160a01b0384161790556200010c62000166565b50506200062c565b600b80546001600160a01b038381166001600160a01b0319831681179093556040519116919082907f8be0079c531659141344cd1fd0a4f28419497f9722a3daafe3b4186f6b6457e090600090a35050565b620001cf6040518060400160405280601081526020016f213937b73d329029bab83837b93a32b960811b81525067016345785d8a00006040518060400160405280600e81526020016d697066733a2f2f62726f6e7a652f60901b8152506200030c60201b60201c565b620002386040518060400160405280601081526020016f29b4b63b32b91029bab83837b93a32b960811b8152506706f05b59d3b200006040518060400160405280600e81526020016d697066733a2f2f73696c7665722f60901b8152506200030c60201b60201c565b6200029d6040518060400160405280600e81526020016d23b7b6321029bab83837b93a32b960911b815250670de0b6b3a76400006040518060400160405280600c81526020016b697066733a2f2f676f6c642f60a01b8152506200030c60201b60201c565b6200030a60405180604001604052806012815260200171283630ba34b73ab69029bab83837b93a32b960711b815250674563918244f400006040518060400160405280601081526020016f697066733a2f2f706c6174696e756d2f60801b8152506200030c60201b60201c565b565b601180549060006200031e83620005ad565b9091555050604080516080810182528481526020808201859052818301849052600160608301526011546000908152600e9091529190912081518190620003669082620004e1565b506020820151600182015560408201516002820190620003879082620004e1565b50606091909101516003909101805460ff19169115159190911790556011546040517f0e0604e052b3c03f749dfaeca4395de2957f31a3896ee0324a805511e072476e90620003da9086908690620005d5565b60405180910390a2505050565b80516001600160a01b0381168114620003ff57600080fd5b919050565b600080604083850312156200041857600080fd5b6200042383620003e7565b91506200043360208401620003e7565b90509250929050565b634e487b7160e01b600052604160045260246000fd5b600181811c908216806200046757607f821691505b6020821081036200048857634e487b7160e01b600052602260045260246000fd5b50919050565b601f821115620004dc57600081815260208120601f850160051c81016020861015620004b75750805b601f850160051c820191505b81811015620004d857828155600101620004c3565b5050505b505050565b81516001600160401b03811115620004fd57620004fd6200043c565b62000515816200050e845462000452565b846200048e565b602080601f8311600181146200054d5760008415620005345750858301515b600019600386901b1c1916600185901b178555620004d8565b600085815260208120601f198616915b828110156200057e578886015182559484019460019091019084016200055d565b50858210156200059d5787850151600019600388901b60f8161c191681555b5050505050600190811b01905550565b600060018201620005ce57634e487b7160e01b600052601160045260246000fd5b5060010190565b604081526000835180604084015260005b81811015620006055760208187018101516060868401015201620005e6565b506000606082850101526060601f19601f8301168401019150508260208301529392505050565b6124cb806200063c6000396000f3fe608060405234801561001057600080fd5b50600436106101e55760003560e01c80636be9a6f11161010f578063a22cb465116100a2578063d0e95fd311610071578063d0e95fd314610488578063e985e9c51461049b578063f2fde38b146104ae578063ff201114146104c157600080fd5b8063a22cb4651461042f578063b88d4fde14610442578063c87b56dd14610455578063cc9d75191461046857600080fd5b80638da5cb5b116100de5780638da5cb5b146103fa57806395d89b411461040b57806396b55f7d1461041357806397f519741461041c57600080fd5b80636be9a6f11461038657806370a08231146103cc578063715018a6146103df57806371e4a521146103e757600080fd5b80631ebb4fdc1161018757806342842e0e1161015657806342842e0e146102f8578063495410151461030b5780634f6ccce7146103605780636352211e1461037357600080fd5b80631ebb4fdc146102ac57806323b872dd146102bf5780632d707464146102d25780632f745c59146102e557600080fd5b8063081812fc116101c3578063081812fc14610247578063095ea7b31461027257806318160ddd146102875780631ba861d21461029957600080fd5b806301ffc9a7146101ea57806306fdde03146102125780630777609714610227575b600080fd5b6101fd6101f8366004611d19565b6104e4565b60405190151581526020015b60405180910390f35b61021a6104f5565b6040516102099190611d86565b61023a610235366004611db5565b610587565b6040516102099190611de1565b61025a610255366004611e25565b6105fb565b6040516001600160a01b039091168152602001610209565b610285610280366004611e3e565b610624565b005b6008545b604051908152602001610209565b61028b6102a7366004611e68565b610633565b6102856102ba366004611eab565b61081b565b6102856102cd366004611ece565b610893565b6102856102e0366004611fb6565b61091e565b61028b6102f3366004611e3e565b610936565b610285610306366004611ece565b61099b565b610340610319366004611e25565b600f6020526000908152604090208054600182015460028301546003909301549192909184565b604080519485526020850193909352918301526060820152608001610209565b61028b61036e366004611e25565b6109b6565b61025a610381366004611e25565b610a0f565b610399610394366004611e25565b610a1a565b60405161020991908151815260208083015190820152604080830151908201526060918201519181019190915260800190565b61028b6103da366004612023565b610ae5565b610285610b2d565b61028b6103f536600461203e565b610b41565b600b546001600160a01b031661025a565b61021a610b7f565b61028b60115481565b600d5461025a906001600160a01b031681565b61028561043d366004612063565b610b8e565b61028561045036600461208d565b610b99565b61021a610463366004611e25565b610bb1565b61047b610476366004611e25565b610bbc565b6040516102099190612109565b610285610496366004612023565b610d93565b6101fd6104a9366004612165565b610e05565b6102856104bc366004612023565b610e33565b6104d46104cf366004611e25565b610e71565b604051610209949392919061218f565b60006104ef82610fac565b92915050565b606060008054610504906121ce565b80601f0160208091040260200160405190810160405280929190818152602001828054610530906121ce565b801561057d5780601f106105525761010080835404028352916020019161057d565b820191906000526020600020905b81548152906001019060200180831161056057829003601f168201915b5050505050905090565b60008281526010602090815260408083206001600160a01b03851684528252918290208054835181840281018401909452808452606093928301828280156105ee57602002820191906000526020600020905b8154815260200190600101908083116105da575b5050505050905092915050565b600061060682610fd1565b506000828152600460205260409020546001600160a01b03166104ef565b61062f82823361100a565b5050565b600d546000906001600160a01b0316331461068d5760405162461bcd60e51b815260206004820152601560248201527413db9b1e48199858dd1bdc9e4818d85b8818d85b1b605a1b60448201526064015b60405180910390fd5b600061069883611017565b9050600081116106ea5760405162461bcd60e51b815260206004820152601f60248201527f436f6e747269627574696f6e20746f6f206c6f7720666f7220726577617264006044820152606401610684565b600c80549060006106fa8361221e565b9091555050600c5461070c868261107a565b60408051608081018252868152602080820187815282840186815242606085019081526000878152600f855286812095518655925160018087019190915591516002808701919091559051600390950194909455898252601083528482206001600160a01b038c168352835284822080549182018155825282822001859055858152600e909152918220016107a087611094565b6040516020016107b1929190612237565b60405160208183030381529060405290506107cc8282611127565b8582886001600160a01b03167f6eef6d5dbbfc3ecccd7889a7373a57ae2820399c502197748371bd51393338558660405161080991815260200190565b60405180910390a45095945050505050565b610823611177565b60008211801561083557506011548211155b6108705760405162461bcd60e51b815260206004820152600c60248201526b24b73b30b634b2103a34b2b960a11b6044820152606401610684565b6000918252600e6020526040909120600301805460ff1916911515919091179055565b6001600160a01b0382166108bd57604051633250574960e11b815260006004820152602401610684565b60006108ca8383336111a4565b9050836001600160a01b0316816001600160a01b031614610918576040516364283d7b60e01b81526001600160a01b0380861660048301526024820184905282166044820152606401610684565b50505050565b610926611177565b6109318383836111b9565b505050565b600061094183610ae5565b82106109725760405163295f44f760e21b81526001600160a01b038416600482015260248101839052604401610684565b506001600160a01b03919091166000908152600660209081526040808320938352929052205490565b61093183838360405180602001604052806000815250610b99565b60006109c160085490565b82106109ea5760405163295f44f760e21b81526000600482015260248101839052604401610684565b600882815481106109fd576109fd6122ce565b90600052602060002001549050919050565b60006104ef82610fd1565b610a456040518060800160405280600081526020016000815260200160008152602001600081525090565b6000828152600260205260409020546001600160a01b0316610aa05760405162461bcd60e51b8152602060048201526014602482015273151bdad95b88191bd95cc81b9bdd08195e1a5cdd60621b6044820152606401610684565b506000908152600f6020908152604091829020825160808101845281548152600182015492810192909252600281015492820192909252600390910154606082015290565b60006001600160a01b038216610b11576040516322718ad960e21b815260006004820152602401610684565b506001600160a01b031660009081526003602052604090205490565b610b35611177565b610b3f600061128c565b565b60106020528260005260406000206020528160005260406000208181548110610b6957600080fd5b9060005260206000200160009250925050505481565b606060018054610504906121ce565b61062f3383836112de565b610ba4848484610893565b610918338585858561137d565b60606104ef826114a8565b610be960405180608001604052806060815260200160008152602001606081526020016000151581525090565b600082118015610bfb57506011548211155b610c365760405162461bcd60e51b815260206004820152600c60248201526b24b73b30b634b2103a34b2b960a11b6044820152606401610684565b6000828152600e602052604090819020815160808101909252805482908290610c5e906121ce565b80601f0160208091040260200160405190810160405280929190818152602001828054610c8a906121ce565b8015610cd75780601f10610cac57610100808354040283529160200191610cd7565b820191906000526020600020905b815481529060010190602001808311610cba57829003601f168201915b5050505050815260200160018201548152602001600282018054610cfa906121ce565b80601f0160208091040260200160405190810160405280929190818152602001828054610d26906121ce565b8015610d735780601f10610d4857610100808354040283529160200191610d73565b820191906000526020600020905b815481529060010190602001808311610d5657829003601f168201915b50505091835250506003919091015460ff16151560209091015292915050565b610d9b611177565b6001600160a01b038116610de35760405162461bcd60e51b815260206004820152600f60248201526e496e76616c6964206164647265737360881b6044820152606401610684565b600d80546001600160a01b0319166001600160a01b0392909216919091179055565b6001600160a01b03918216600090815260056020908152604080832093909416825291909152205460ff1690565b610e3b611177565b6001600160a01b038116610e6557604051631e4fbdf760e01b815260006004820152602401610684565b610e6e8161128c565b50565b600e60205260009081526040902080548190610e8c906121ce565b80601f0160208091040260200160405190810160405280929190818152602001828054610eb8906121ce565b8015610f055780601f10610eda57610100808354040283529160200191610f05565b820191906000526020600020905b815481529060010190602001808311610ee857829003601f168201915b505050505090806001015490806002018054610f20906121ce565b80601f0160208091040260200160405190810160405280929190818152602001828054610f4c906121ce565b8015610f995780601f10610f6e57610100808354040283529160200191610f99565b820191906000526020600020905b815481529060010190602001808311610f7c57829003601f168201915b5050506003909301549192505060ff1684565b60006001600160e01b03198216632483248360e11b14806104ef57506104ef826115b1565b6000818152600260205260408120546001600160a01b0316806104ef57604051637e27328960e01b815260048101849052602401610684565b61093183838360016115d6565b60008060015b6011548111611073576000818152600e602052604090206003015460ff16801561105857506000818152600e60205260409020600101548410155b15611061578091505b8061106b8161221e565b91505061101d565b5092915050565b61062f8282604051806020016040528060008152506116dc565b606060006110a1836116f4565b600101905060008167ffffffffffffffff8111156110c1576110c1611f0a565b6040519080825280601f01601f1916602001820160405280156110eb576020820181803683370190505b5090508181016020015b600019016f181899199a1a9b1b9c1cb0b131b232b360811b600a86061a8153600a85049450846110f557509392505050565b6000828152600a6020526040902061113f828261232a565b506040518281527ff8e1a15aba9398e019f0b49df1a4fde98ee17ae345cb5f6b5e2c27f5033e8ce79060200160405180910390a15050565b600b546001600160a01b03163314610b3f5760405163118cdaa760e01b8152336004820152602401610684565b60006111b18484846117cc565b949350505050565b601180549060006111c98361221e565b9091555050604080516080810182528481526020808201859052818301849052600160608301526011546000908152600e909152919091208151819061120f908261232a565b50602082015160018201556040820151600282019061122e908261232a565b50606091909101516003909101805460ff19169115159190911790556011546040517f0e0604e052b3c03f749dfaeca4395de2957f31a3896ee0324a805511e072476e9061127f90869086906123ea565b60405180910390a2505050565b600b80546001600160a01b038381166001600160a01b0319831681179093556040519116919082907f8be0079c531659141344cd1fd0a4f28419497f9722a3daafe3b4186f6b6457e090600090a35050565b6001600160a01b03821661131057604051630b61174360e31b81526001600160a01b0383166004820152602401610684565b6001600160a01b03838116600081815260056020908152604080832094871680845294825291829020805460ff191686151590811790915591519182527f17307eab39ab6107e8899845ad3d59bd9653f200f220920489ca2b5937696c31910160405180910390a3505050565b6001600160a01b0383163b156114a157604051630a85bd0160e11b81526001600160a01b0384169063150b7a02906113bf90889088908790879060040161240c565b6020604051808303816000875af19250505080156113fa575060408051601f3d908101601f191682019092526113f791810190612449565b60015b611463573d808015611428576040519150601f19603f3d011682016040523d82523d6000602084013e61142d565b606091505b50805160000361145b57604051633250574960e11b81526001600160a01b0385166004820152602401610684565b805160208201fd5b6001600160e01b03198116630a85bd0160e11b1461149f57604051633250574960e11b81526001600160a01b0385166004820152602401610684565b505b5050505050565b60606114b382610fd1565b506000828152600a6020526040812080546114cd906121ce565b80601f01602080910402602001604051908101604052809291908181526020018280546114f9906121ce565b80156115465780601f1061151b57610100808354040283529160200191611546565b820191906000526020600020905b81548152906001019060200180831161152957829003601f168201915b50505050509050600061156460408051602081019091526000815290565b90508051600003611576575092915050565b8151156115a8578082604051602001611590929190612466565b60405160208183030381529060405292505050919050565b6111b184611899565b60006001600160e01b0319821663780e9d6360e01b14806104ef57506104ef8261190e565b80806115ea57506001600160a01b03821615155b156116ac5760006115fa84610fd1565b90506001600160a01b038316158015906116265750826001600160a01b0316816001600160a01b031614155b801561163957506116378184610e05565b155b156116625760405163a9fbf51f60e01b81526001600160a01b0384166004820152602401610684565b81156116aa5783856001600160a01b0316826001600160a01b03167f8c5be1e5ebec7d5bd14f71427d1e84f3dd0314c0f7b2291e5b200ac8c7c3b92560405160405180910390a45b505b5050600090815260046020526040902080546001600160a01b0319166001600160a01b0392909216919091179055565b6116e6838361195e565b61093133600085858561137d565b60008072184f03e93ff9f4daa797ed6e38ed64bf6a1f0160401b83106117335772184f03e93ff9f4daa797ed6e38ed64bf6a1f0160401b830492506040015b6d04ee2d6d415b85acef8100000000831061175f576d04ee2d6d415b85acef8100000000830492506020015b662386f26fc10000831061177d57662386f26fc10000830492506010015b6305f5e1008310611795576305f5e100830492506008015b61271083106117a957612710830492506004015b606483106117bb576064830492506002015b600a83106104ef5760010192915050565b6000806117da8585856119c3565b90506001600160a01b0381166118375761183284600880546000838152600960205260408120829055600182018355919091527ff3f7a9fe364faab93b216da50a3214154f22a0a2b415b23a84c8169e8b636ee30155565b61185a565b846001600160a01b0316816001600160a01b03161461185a5761185a8185611abc565b6001600160a01b0385166118765761187184611b3d565b6111b1565b846001600160a01b0316816001600160a01b0316146111b1576111b18585611bec565b60606118a482610fd1565b5060006118bc60408051602081019091526000815290565b905060008151116118dc5760405180602001604052806000815250611907565b806118e684611094565b6040516020016118f7929190612466565b6040516020818303038152906040525b9392505050565b60006001600160e01b031982166380ac58cd60e01b148061193f57506001600160e01b03198216635b5e139f60e01b145b806104ef57506301ffc9a760e01b6001600160e01b03198316146104ef565b6001600160a01b03821661198857604051633250574960e11b815260006004820152602401610684565b6000611996838360006111a4565b90506001600160a01b03811615610931576040516339e3563760e11b815260006004820152602401610684565b6000828152600260205260408120546001600160a01b03908116908316156119f0576119f0818486611c3c565b6001600160a01b03811615611a2e57611a0d6000856000806115d6565b6001600160a01b038116600090815260036020526040902080546000190190555b6001600160a01b03851615611a5d576001600160a01b0385166000908152600360205260409020805460010190555b60008481526002602052604080822080546001600160a01b0319166001600160a01b0389811691821790925591518793918516917fddf252ad1be2c89b69c2b068fc378daa952ba7f163c4a11628f55a4df523b3ef91a4949350505050565b6000611ac783610ae5565b6000838152600760209081526040808320546001600160a01b0388168452600690925290912091925090818314611b1e57600083815260208281526040808320548584528184208190558352600790915290208290555b6000938452600760209081526040808620869055938552525081205550565b600854600090611b4f90600190612495565b60008381526009602052604081205460088054939450909284908110611b7757611b776122ce565b906000526020600020015490508060088381548110611b9857611b986122ce565b6000918252602080832090910192909255828152600990915260408082208490558582528120556008805480611bd057611bd06124a8565b6001900381819060005260206000200160009055905550505050565b60006001611bf984610ae5565b611c039190612495565b6001600160a01b039093166000908152600660209081526040808320868452825280832085905593825260079052919091209190915550565b611c47838383611ca0565b610931576001600160a01b038316611c7557604051637e27328960e01b815260048101829052602401610684565b60405163177e802f60e01b81526001600160a01b038316600482015260248101829052604401610684565b60006001600160a01b038316158015906111b15750826001600160a01b0316846001600160a01b03161480611cda5750611cda8484610e05565b806111b15750506000908152600460205260409020546001600160a01b03908116911614919050565b6001600160e01b031981168114610e6e57600080fd5b600060208284031215611d2b57600080fd5b813561190781611d03565b60005b83811015611d51578181015183820152602001611d39565b50506000910152565b60008151808452611d72816020860160208601611d36565b601f01601f19169290920160200192915050565b6020815260006119076020830184611d5a565b80356001600160a01b0381168114611db057600080fd5b919050565b60008060408385031215611dc857600080fd5b82359150611dd860208401611d99565b90509250929050565b6020808252825182820181905260009190848201906040850190845b81811015611e1957835183529284019291840191600101611dfd565b50909695505050505050565b600060208284031215611e3757600080fd5b5035919050565b60008060408385031215611e5157600080fd5b611e5a83611d99565b946020939093013593505050565b600080600060608486031215611e7d57600080fd5b611e8684611d99565b95602085013595506040909401359392505050565b80358015158114611db057600080fd5b60008060408385031215611ebe57600080fd5b82359150611dd860208401611e9b565b600080600060608486031215611ee357600080fd5b611eec84611d99565b9250611efa60208501611d99565b9150604084013590509250925092565b634e487b7160e01b600052604160045260246000fd5b600067ffffffffffffffff80841115611f3b57611f3b611f0a565b604051601f8501601f19908116603f01168101908282118183101715611f6357611f63611f0a565b81604052809350858152868686011115611f7c57600080fd5b858560208301376000602087830101525050509392505050565b600082601f830112611fa757600080fd5b61190783833560208501611f20565b600080600060608486031215611fcb57600080fd5b833567ffffffffffffffff80821115611fe357600080fd5b611fef87838801611f96565b945060208601359350604086013591508082111561200c57600080fd5b5061201986828701611f96565b9150509250925092565b60006020828403121561203557600080fd5b61190782611d99565b60008060006060848603121561205357600080fd5b83359250611efa60208501611d99565b6000806040838503121561207657600080fd5b61207f83611d99565b9150611dd860208401611e9b565b600080600080608085870312156120a357600080fd5b6120ac85611d99565b93506120ba60208601611d99565b925060408501359150606085013567ffffffffffffffff8111156120dd57600080fd5b8501601f810187136120ee57600080fd5b6120fd87823560208401611f20565b91505092959194509250565b60208152600082516080602084015261212560a0840182611d5a565b9050602084015160408401526040840151601f1984830301606085015261214c8282611d5a565b9150506060840151151560808401528091505092915050565b6000806040838503121561217857600080fd5b61218183611d99565b9150611dd860208401611d99565b6080815260006121a26080830187611d5a565b85602084015282810360408401526121ba8186611d5a565b915050821515606083015295945050505050565b600181811c908216806121e257607f821691505b60208210810361220257634e487b7160e01b600052602260045260246000fd5b50919050565b634e487b7160e01b600052601160045260246000fd5b60006001820161223057612230612208565b5060010190565b6000808454612245816121ce565b6001828116801561225d5760018114612272576122a1565b60ff19841687528215158302870194506122a1565b8860005260208060002060005b858110156122985781548a82015290840190820161227f565b50505082870194505b5050505083516122b5818360208801611d36565b64173539b7b760d91b9101908152600501949350505050565b634e487b7160e01b600052603260045260246000fd5b601f82111561093157600081815260208120601f850160051c8101602086101561230b5750805b601f850160051c820191505b8181101561149f57828155600101612317565b815167ffffffffffffffff81111561234457612344611f0a565b6123588161235284546121ce565b846122e4565b602080601f83116001811461238d57600084156123755750858301515b600019600386901b1c1916600185901b17855561149f565b600085815260208120601f198616915b828110156123bc5788860151825594840194600190910190840161239d565b50858210156123da5787850151600019600388901b60f8161c191681555b5050505050600190811b01905550565b6040815260006123fd6040830185611d5a565b90508260208301529392505050565b6001600160a01b038581168252841660208201526040810183905260806060820181905260009061243f90830184611d5a565b9695505050505050565b60006020828403121561245b57600080fd5b815161190781611d03565b60008351612478818460208801611d36565b83519083019061248c818360208801611d36565b01949350505050565b818103818111156104ef576104ef612208565b634e487b7160e01b600052603160045260246000fdfea164736f6c6343000814000a",
  "linkReferences": {},
  "deployedLinkReferences": {}
}